ACH SECURITY LINE                                                                             
101 IMMDESTIDIMMEORIGIN2506300956A094101IMMEDIATEDESTINATIONNMEIMMEDIATEORIGINNAME            
5200EDWARD'S COMPANY                    555666777 PPDAUTOPAYMNT250630250630   1084000020000001
6320621035929876543210       0000100000141751         SHAH, RIDDHI            0084000020000001
627RECEDFIIDRECEIVINGDFIACCO#0000100000555666777      EDWARD'S COMPANY        0084000020000002
82000000020006210359000000100000000000100000555666777                          084000020000001
9000001000001000000020006210359000000100000000000100000                                       
9999999999999999999999999999999999999999999999999999999999999999999999999999999999999999999999
9999999999999999999999999999999999999999999999999999999999999999999999999999999999999999999999
9999999999999999999999999999999999999999999999999999999999999999999999999999999999999999999999
9999999999999999999999999999999999999999999999999999999999999999999999999999999999999999999999
